:100000000C942A000C9447000C9447000C94470071
:100010000C9447000C9447000C9447000C94470044
:100020000C9447000C9447000C94880B0C944700E8
:100030000C9447000C9447000C9447000C94470024
:100040000C9447000C9447000C9447000C94470014
:100050000C94470011241FBECFE5D8E0DEBFCDBF12
:1000600011E0A0E6B0E0ECEBF8E102C005900D92E3
:10007000AA36B107D9F711E0AAE6B1E001C01D9296
:10008000A037B107E1F70E94840A0C945C0C0C9431
:100090000000EF92FF920F931F937B018C0120E0F1
:1000A00030E040E05FE40E94190388238CF0C8012F
:1000B000B70120E030E040E05FE40E94C1010E940F
:1000C000A7039B01AC01205030404040504806C07F
:1000D000C801B7010E94A7039B01AC01B901CA0185
:1000E0001F910F91FF90EF900895A0E0B0E0EBE733
:1000F000F0E00C94250CDC012B01FA019C9192306C
:1001000008F439C1EB018881823008F433C194309E
:1001100069F4843009F02FC111969C91119789815F
:10012000981709F428C1A0E6B0E025C1843009F48D
:1001300021C18230A9F4923009F01DC19A01AD01AC
:1001400088E0EA010990AE01E90109929E0181501F
:10015000C1F7E201898111969C918923818308C1AD
:10016000923009F407C112962D903C901397EB0141
:100170008A819B811496AD90BD90CD90DC901797AD
:10018000EC80FD800E811F819101281B390BB90184
:1001900037FF04C066277727621B730B6032710537
:1001A0000CF061C0121613066CF537014801062EDB
:1001B00004C096948794779467940A94D2F721E0C8
:1001C00030E040E050E004C0220F331F441F551FB1
:1001D0006A95D2F721503040404050402E213F21B7
:1001E00040235123211531054105510521F021E01E
:1001F00030E040E050E079018A01E628F72808293C
:1002000019293CC0232BD1F1260E371E350146019A
:10021000062E04C096948794779467940A94D2F734
:1002200021E030E040E050E004C0220F331F441FC3
:10023000551F6A95D2F721503040404050402A2146
:100240003B214C215D21211531054105510521F04E
:1002500021E030E040E050E059016A01A628B728CB
:10026000C828D9280BC0821593052CF01C01AA249C
:10027000BB24650103C0EE24FF24870111969C91E5
:10028000D20111968C91981709F445C0992339F041
:10029000A80197012A193B094C095D0906C0A6016E
:1002A00095012E193F09400B510B57FD08C01182D3
:1002B0003382228224833583468357831DC081E0A5
:1002C00081833382228288279927DC01821B930B4A
:1002D000A40BB50B84839583A683B7830DC0220F2F
:1002E000331F441F551F24833583468357838281E0
:1002F000938101979383828324813581468157813D
:10030000DA01C9010197A109B1098F5F9F4FAF4F72
:10031000BF4328F30BC0918333822282EA0CFB1C7B
:100320000C1D1D1DE482F5820683178383E0808304
:10033000248135814681578157FF1AC0C901AA27F8
:1003400097FDA095BA2F81709070A070B0705695EF
:10035000479537952795822B932BA42BB52B848318
:100360009583A683B7838281938101969383828349
:10037000DF0101C0D201CD01CDB7DEB7E2E10C94BF
:10038000410CA0E2B0E0E7ECF1E00C94310C6983A1
:100390007A838B839C832D833E834F835887E9E048
:1003A000EE2EF12CEC0EFD1ECE010196B7010E943F
:1003B0001F058E010F5E1F4FCE010596B8010E94EA
:1003C0001F058A8991E089278A8BC701B801AE0190
:1003D000475E5F4F0E9475000E944A04A096E6E0C7
:1003E0000C944D0CA0E2B0E0E8EFF1E00C94310C7D
:1003F00069837A838B839C832D833E834F835887C5
:10040000F9E0EF2EF12CEC0EFD1ECE010196B701A6
:100410000E941F058E010F5E1F4FCE010596B80189
:100420000E941F05C701B801AE01475E5F4F0E94E1
:1004300075000E944A04A096E6E00C944D0CA0E2E0
:10044000B0E0E5E2F2E00C94250C69837A838B83BB
:100450009C832D833E834F835887CE010196BE0136
:10046000675F7F4F0E941F05CE010596BE016F5E3C
:100470007F4F0E941F059985923088F089898230CC
:10048000C8F0943019F4823051F404C0843029F457
:10049000923081F480E690E0C6C0923049F420E0CA
:1004A0009A858A89981321E02A87CE010996BBC0D4
:1004B000823049F420E09A858A89981321E02A8BBA
:1004C000CE014196B0C02D843E844F8458886D88FB
:1004D0007E888F88988CEE24FF248701AA24BB2471
:1004E000650140E050E060E070E0E0E0F0E0C10174
:1004F00081709070892BE9F0E60CF71C081D191D1E
:100500009A01AB012A0D3B1D4C1D5D1D80E090E062
:10051000A0E0B0E0E614F7040805190520F481E036
:1005200090E0A0E0B0E0BA01A901480F591F6A1F8E
:100530007B1FAA0CBB1CCC1CDD1C97FE08C081E0F5
:1005400090E0A0E0B0E0A82AB92ACA2ADB2A3196B6
:10055000E032F10549F0660C771C881C991C569412
:10056000479437942794C3CFFA85EA892B893C892D
:100570008B859C85280F391F2E5F3F4F17C0CA01FE
:1005800081709070892B61F016950795F794E79428
:1005900080E090E0A0E0B0E8E82AF92A0A2B1B2BC3
:1005A00076956795579547952F5F3F4F77FDE7CF36
:1005B0000CC0440F551F661F771F17FD4160EE0CDE
:1005C000FF1C001F111F21503040403090E05907A0
:1005D00090E0690790E4790760F32B8F3C8FDB0193
:1005E000CA018F779070A070B07080349105A1051A
:1005F000B10561F447FD0AC0E114F10401051105DC
:1006000029F0405C5F4F6F4F7F4F40781A8EFE1786
:1006100011F081E08A8F4D8F5E8F6F8F78A383E01A
:10062000898FCE0149960E944A04A096E2E10C947B
:10063000410CA8E1B0E0EFE1F3E00C94310C6983E8
:100640007A838B839C832D833E834F83588789E0F5
:10065000E82EF12CEC0EFD1ECE010196B7010E9492
:100660001F058E010F5E1F4FCE010596B8010E9437
:100670001F058985823040F08989823028F0C701C2
:10068000B8010E94970501C08FEF6896E6E00C94D0
:100690004D0CA8E0B0E0EFE4F3E00C942E0C9B01CD
:1006A000AC0183E08983DA01C9018827B7FD83950E
:1006B0009927AA27BB27B82E2115310541055105D9
:1006C00019F482E089833AC08823A9F0203080E0C1
:1006D000380780E0480780E8580729F460E070E0B8
:1006E00080E09FEC30C0EE24FF248701E21AF30A79
:1006F000040B150B02C079018A018EE1C82ED12CA2
:10070000DC82CB82ED82FE820F831887C801B7019D
:100710000E94FB0301971816190684F4082E04C0E2
:10072000EE0CFF1C001F111F0A94D2F7ED82FE820F
:100730000F831887C81AD90ADC82CB82BA82CE010D
:1007400001960E944A042896E9E00C944A0CACE019
:10075000B0E0EDEAF3E00C94350C69837A838B8387
:100760009C83CE010196BE016B5F7F4F0E941F05E7
:100770008D81823061F1823050F1843021F48E819C
:10078000882351F12EC02F81388537FD20C06E811E
:100790002F3131051CF06623F9F023C08EE190E083
:1007A000821B930B29853A854B855C8504C0569541
:1007B0004795379527958A95D2F76623B1F05095DE
:1007C0004095309521953F4F4F4F5F4F0EC020E031
:1007D00030E040E050E009C02FEF3FEF4FEF5FE720
:1007E00004C020E030E040E050E8B901CA012C9696
:1007F000E2E00C94510CEF92FF920F931F937B0158
:100800008C0180E0E81680E0F80681E0080780E0CF
:10081000180788F48FEFE816F1040105110531F08F
:1008200028F088E090E0A0E0B0E017C080E090E021
:10083000A0E0B0E012C080E0E81680E0F80680E0BA
:10084000080781E0180728F088E190E0A0E0B0E018
:1008500004C080E190E0A0E0B0E020E230E040E0C1
:1008600050E0281B390B4A0B5B0B04C0169507950B
:10087000F794E7948A95D2F7F701E859FF4F808102
:10088000281B310941095109C9011F910F91FF909E
:10089000EF900895DF92EF92FF920F931F93FC0168
:1008A000E480F58006811781D1808081823048F410
:1008B00080E090E0A0E1B0E0E82AF92A0A2B1B2BA7
:1008C000A5C0843009F49FC0823021F4EE24FF24B7
:1008D000870105C0E114F1040105110519F4E0E0F8
:1008E000F0E096C0628173819FEF623879070CF067
:1008F0005BC022E83FEF261B370B2A3131052CF075
:1009000020E030E040E050E02AC0B801A701022E0C
:1009100004C076956795579547950A94D2F781E07C
:1009200090E0A0E0B0E004C0880F991FAA1FBB1F91
:100930002A95D2F70197A109B1098E219F21A02301
:10094000B1230097A105B10521F081E090E0A0E07E
:10095000B0E09A01AB01282B392B4A2B5B2BDA0133
:10096000C9018F779070A070B07080349105A10597
:10097000B10539F427FF09C0205C3F4F4F4F5F4F4F
:1009800004C0215C3F4F4F4F5F4FE0E0F0E020306C
:10099000A0E03A07A0E04A07A0E45A0710F0E1E01F
:1009A000F0E079018A0127C06038710564F5FB0128
:1009B000E158FF4FD801C7018F779070A070B070D9
:1009C00080349105A105B10539F4E7FE0DC080E43E
:1009D00090E0A0E0B0E004C08FE390E0A0E0B0E0E1
:1009E000E80EF91E0A1F1B1F17FF05C01695079575
:1009F000F794E794319687E016950795F794E79476
:100A00008A95D1F705C0EE24FF248701EFEFF0E0CF
:100A10006E2F679566276795902F9F77D794DD2473
:100A2000D7948E2F8695492F462B582F5D29B701D5
:100A3000CA011F910F91FF90EF90DF900895FC0184
:100A4000DB01408151812281622F6F7770E0221F8C
:100A50002227221F9381892F880F822B282F30E095
:100A6000991F9927991F11969C931197211531056C
:100A7000A9F5411551056105710511F482E037C0F2
:100A800082E89FEF13969C938E9312979A01AB0185
:100A900067E0220F331F441F551F6A95D1F783E08B
:100AA0008C930DC0220F331F441F551F12968D913A
:100AB0009C911397019713969C938E9312972030D5
:100AC00080E0380780E0480780E4580758F3149620
:100AD0002D933D934D935C93179708952F3F3105C8
:100AE00079F4411551056105710519F484E08C9381
:100AF000089564FF03C081E08C9312C01C9210C063
:100B00002F57304013963C932E93129783E08C938B
:100B100087E0440F551F661F771F8A95D1F77064D1
:100B200014964D935D936D937C93179708951F933F
:100B3000DC01FB019C91923008F447C08081823037
:100B400008F443C0943051F411961C91843099F507
:100B50008181682F70E0611B71093FC0843021F0F2
:100B6000923031F48230B9F18181882389F12DC02E
:100B700011961C9111978230F1F081811817D9F4E8
:100B800012962D913C91139782819381821793073E
:100B900094F028173907BCF014968D919D910D9013
:100BA000BC91A02D248135814681578128173907B2
:100BB0004A075B0718F4112341F00AC08217930714
:100BC000A407B50740F4112319F061E070E005C0F7
:100BD0006FEF7FEF02C060E070E0CB011F910895DE
:100BE000DF93CF93CDB7DEB7ECE5F0E08EE4808302
:100BF000A3E5B0E0E3E5F0E0808188608C93A3E5B5
:100C0000B0E0E3E5F0E080818F7B8C93A3E5B0E07A
:100C1000E3E5F0E0808181608C93A3E5B0E0E3E55B
:100C2000F0E080818D7F8C93A3E5B0E0E3E5F0E018
:100C3000808184608C93A9E5B0E0E9E5F0E08081F3
:100C400082608C93CF91DF910895DF93CF93CDB7DE
:100C5000DEB7A3E5B0E0E3E5F0E080818E7F8C9322
:100C6000A3E5B0E0E3E5F0E080818D7F8C93A3E520
:100C7000B0E0E3E5F0E080818B7F8C93CF91DF9152
:100C80000895DF93CF9300D00F92CDB7DEB79B834B
:100C90008A8381E089838A819B81009739F08A81E8
:100CA0009B8190936B0180936A0101C019828981B5
:100CB0000F900F900F90CF91DF910895DF93CF9316
:100CC000CDB7DEB7A7E3B0E0E7E3F0E08081806B6B
:100CD0008C93ADE2B0E0EDE2F0E0808181658C9331
:100CE000CF91DF910895DF93CF93CDB7DEB7A7E320
:100CF000B0E0E7E3F0E0808180648C93ADE2B0E0A7
:100D0000EDE2F0E0808180648C93CF91DF910895D3
:100D1000DF93CF930F92CDB7DEB78983EFE2F0E098
:100D200089818083EEE2F0E08081881F8827881F18
:100D3000882F90E090700097A9F3EFE2F0E08081B7
:100D40000F90CF91DF910895DF93CF93CDB7DEB7AA
:100D5000AFE5B0E0EFE5F0E0808180688C93CF9163
:100D6000DF910895DF93CF93CDB7DEB7AFE5B0E065
:100D7000EFE5F0E080818F778C93CF91DF9108953C
:100D8000DF93CF9300D000D0CDB7DEB789836A83DD
:100D90008981282F30E03C832B838B819C8181309B
:100DA0009105D1F02B813C81223031052CF48B81CF
:100DB0009C81009761F01EC02B813C81223031055F
:100DC00081F08B819C818330910581F013C0EAE32F
:100DD000F0E08A8180830EC0E7E3F0E08A818083BF
:100DE00009C0E4E3F0E08A81808304C0E1E3F0E03D
:100DF0008A8180830F900F900F900F90CF91DF9199
:100E00000895DF93CF93CDB7DEB727970FB6F89449
:100E1000DEBF0FBECDBF89836A834B838981843057
:100E200008F0EEC08A81883008F0EAC08B818130FA
:100E300009F06FC08981282F30E03F832E838E8197
:100E40009F818130910549F12E813F81223031050A
:100E50002CF48E819F81009761F0D2C02E813F815A
:100E60002230310571F18E819F8183309105E9F146
:100E7000C7C0AAE3B0E0EAE3F0E08081482F8A81AE
:100E8000282F30E081E090E0022E02C0880F991FE9
:100E90000A94E2F7842B8C93B3C0A7E3B0E0E7E3B6
:100EA000F0E08081482F8A81282F30E081E090E0B7
:100EB000022E02C0880F991F0A94E2F7842B8C93AC
:100EC0009FC0A4E3B0E0E4E3F0E08081482F8A8192
:100ED000282F30E081E090E0022E02C0880F991F99
:100EE0000A94E2F7842B8C938BC0A1E3B0E0E1E39A
:100EF000F0E08081482F8A81282F30E081E090E067
:100F0000022E02C0880F991F0A94E2F7842B8C935B
:100F100077C08B81882309F073C08981282F30E046
:100F20003D832C838C819D818130910559F12C81E9
:100F30003D81223031052CF48C819D81009769F030
:100F40005FC02C813D812230310589F18C819D81EA
:100F50008330910509F440C053C0AAE3B0E0EAE34E
:100F6000F0E08081482F8A81282F30E081E090E0F6
:100F7000022E02C0880F991F0A94E2F780958423FD
:100F80008C933EC0A7E3B0E0E7E3F0E08081482F18
:100F90008A81282F30E081E090E0022E02C0880F85
:100FA000991F0A94E2F7809584238C9329C0A4E3C7
:100FB000B0E0E4E3F0E08081482F8A81282F30E020
:100FC00081E090E0022E02C0880F991F0A94E2F798
:100FD000809584238C9314C0A1E3B0E0E1E3F0E0BA
:100FE0008081482F8A81282F30E081E090E0022E16
:100FF00002C0880F991F0A94E2F7809584238C938E
:1010000027960FB6F894DEBF0FBECDBFCF91DF910C
:101010000895DF93CF9300D000D0CDB7DEB789839A
:101020006A838981282F30E03C832B838B819C81CC
:1010300081309105D1F02B813C81223031052CF497
:101040008B819C81009761F01EC02B813C812230F6
:10105000310581F08B819C818330910581F013C033
:10106000EBE3F0E08A8180830EC0E8E3F0E08A8160
:10107000808309C0E5E3F0E08A81808304C0E2E375
:10108000F0E08A8180830F900F900F900F90CF91A6
:10109000DF910895DF93CF93CDB7DEB727970FB6D3
:1010A000F894DEBF0FBECDBF89836A834B838981ED
:1010B000843008F0EEC08A81883008F0EAC08B8165
:1010C000813009F06FC08981282F30E03F832E8363
:1010D0008E819F818130910549F12E813F8122309F
:1010E00031052CF48E819F81009761F0D2C02E8152
:1010F0003F812230310571F18E819F8183309105CE
:10110000E9F1C7C0ABE3B0E0EBE3F0E08081482F4A
:101110008A81282F30E081E090E0022E02C0880F03
:10112000991F0A94E2F7842B8C93B3C0A8E3B0E034
:10113000E8E3F0E08081482F8A81282F30E081E0C9
:1011400090E0022E02C0880F991F0A94E2F7842BC8
:101150008C939FC0A5E3B0E0E5E3F0E08081482FE9
:101160008A81282F30E081E090E0022E02C0880FB3
:10117000991F0A94E2F7842B8C938BC0A2E3B0E012
:10118000E2E3F0E08081482F8A81282F30E081E07F
:1011900090E0022E02C0880F991F0A94E2F7842B78
:1011A0008C9377C08B81882309F073C08981282FA5
:1011B00030E03D832C838C819D818130910559F1F4
:1011C0002C813D81223031052CF48C819D8100974A
:1011D00069F05FC02C813D812230310589F18C811D
:1011E0009D818330910509F440C053C0ABE3B0E06A
:1011F000EBE3F0E08081482F8A81282F30E081E006
:1012000090E0022E02C0880F991F0A94E2F78095A1
:1012100084238C933EC0A8E3B0E0E8E3F0E0808153
:10122000482F8A81282F30E081E090E0022E02C012
:10123000880F991F0A94E2F7809584238C9329C024
:10124000A5E3B0E0E5E3F0E08081482F8A81282F14
:1012500030E081E090E0022E02C0880F991F0A94CE
:10126000E2F7809584238C9314C0A2E3B0E0E2E31C
:10127000F0E08081482F8A81282F30E081E090E0E3
:10128000022E02C0880F991F0A94E2F780958423EA
:101290008C9327960FB6F894DEBF0FBECDBFCF91CB
:1012A000DF910895DF93CF9300D000D00F92CDB798
:1012B000DEB78A836B838A81843008F06BC08B81B0
:1012C000883008F067C08A81282F30E03D832C8366
:1012D0004C815D814130510541F18C819D8182308D
:1012E000910534F42C813D812115310561F052C006
:1012F0004C815D814230510551F18C819D8183305B
:101300009105B9F147C0E9E3F0E08081282F30E092
:101310008B81882F90E0A90102C0559547958A9549
:10132000E2F7CA018170898335C0E6E3F0E080818D
:10133000282F30E08B81882F90E0A90102C05595BD
:1013400047958A95E2F7CA018170898323C0E3E358
:10135000F0E08081282F30E08B81882F90E0A90178
:1013600002C0559547958A95E2F7CA018170898335
:1013700011C0E0E3F0E08081282F30E08B81882FDE
:1013800090E0A90102C0559547958A95E2F7CA01F8
:101390008170898389810F900F900F900F900F902B
:1013A000CF91DF910895DF93CF93CDB7DEB7A7E25A
:1013B000B0E0E7E2F0E0808180648C93A7E2B0E0E7
:1013C000E7E2F0E0808180688C93A7E2B0E0E7E29A
:1013D000F0E080818F7D8C93A6E2B0E0E6E2F0E061
:1013E000808184608C93A6E2B0E0E6E2F0E0808148
:1013F00082608C93A6E2B0E0E6E2F0E080818E7F2E
:101400008C93A6E2B0E0E6E2F0E0808180688C9305
:10141000CF91DF910895DF93CF9300D0CDB7DEB7A2
:10142000A6E2B0E0E6E2F0E0808180648C93E6E240
:10143000F0E0808182958F70882F90E081709070AD
:101440000097A9F3E4E2F0E08081282F30E0898161
:101450009A81822B932B9A838983E5E2F0E0808145
:10146000882F90E0982F88279C0189819A81822B70
:10147000932B9A83898389810F900F90CF91DF916D
:101480000895DF93CF9300D0CDB7DEB789836A8309
:1014900089816A8141E00E9401070F900F90CF91EE
:1014A000DF910895DF93CF9300D0CDB7DEB7898366
:1014B0006A8389816A8141E00E944A080F900F90F7
:1014C000CF91DF910895DF93CF9300D0CDB7DEB7F2
:1014D00089836A8389816A8140E00E944A080F906B
:1014E0000F90CF91DF910895DF93CF9300D0CDB7C8
:1014F000DEB789836A8389816A810E9452090F90CD
:101500000F90CF91DF910895DF93CF9300D00F928A
:10151000CDB7DEB70E94A4060E94D3090E94F00551
:101520000E94730683E060E00E94410A83E061E06C
:101530000E94410A83E062E00E94410A83E063E086
:101540000E94410A8FEF89838FEF0E94880689836A
:101550008981282F30E03B832A838A819B818232D4
:10156000910509F4AEC02A813B81233231052CF567
:101570008A819B818331910509F474C02A813B8162
:10158000243131056CF48A819B818131910509F404
:101590003FC02A813B812231310509F44EC0D4CFAE
:1015A0008A819B818431910509F471C02A813B8134
:1015B0002132310509F480C0C7CF8A819B818133F4
:1015C000910509F48FC02A813B81223331056CF4E7
:1015D0008A819B818332910509F478C02A813B81FD
:1015E0002432310509F477C0AFCF8A819B818333E0
:1015F000910509F481C02A813B81233331050CF424
:1016000076C08A819B818433910509F47AC09CCF8E
:1016100083E061E00E94740A882321F480E00E9444
:10162000880692CF83E061E00E94740A813009F05D
:101630008BCF81E00E94880687CF83E062E00E9422
:10164000740A882321F480E00E9488067DCF83E01D
:1016500062E00E94740A813009F076CF81E00E9436
:10166000880672CF83E063E00E94740A882321F425
:1016700080E00E94880668CF83E063E00E94740ADD
:10168000813009F061CF81E00E9488065DCF83E060
:1016900060E00E94740A882321F480E00E9488069A
:1016A00053CF83E060E00E94740A813009F04CCF90
:1016B00081E00E94880648CF83E061E00E94520AE0
:1016C00043CF83E062E00E94520A3ECF83E063E0B2
:1016D0000E94520A39CF0E94F00583E060E00E9428
:1016E000520A32CF83E061E00E94630A2DCF83E08B
:1016F00062E00E94630A28CF83E063E00E94630AED
:1017000023CF0E94250683E060E00E94630A1CCF7D
:101710001F920F920FB60F9211242F933F934F9366
:101720005F936F937F938F939F93AF93BF93EF9349
:10173000FF93DF93CF93CDB7DEB780916E018F5FBC
:1017400080936E0180916E018A3008F46BC0109214
:101750006E010E940B0A882F90E0AA2797FDA095A2
:10176000BA2FBC01CD010E944903DC01CB01BC01B1
:10177000CD0120E030E040E85EE30E941F02DC0182
:10178000CB01BC01CD010E944900DC01CB0190934B
:101790006D0180936C0180916801909169019C01B9
:1017A0002F5F3F4F80916C0190916D0182179307DD
:1017B00040F083E060E00E94520A81E080936F0174
:1017C00031C080916801909169019C0121503040A5
:1017D00080916C0190916D012817390738F083E0F2
:1017E00060E00E94630A10926F011CC020916C019E
:1017F00030916D0180916801909169012817390736
:1018000089F480916F01813029F483E060E00E94C7
:10181000520A08C080916F01882321F483E060E0C0
:101820000E94630ACF91DF91FF91EF91BF91AF9139
:101830009F918F917F916F915F914F913F912F91E8
:101840000F900FBE0F901F9018952F923F924F92BE
:101850005F926F927F928F929F92AF92BF92CF9240
:10186000DF92EF92FF920F931F93CF93DF93CDB749
:10187000DEB7CA1BDB0B0FB6F894DEBF0FBECDBFC1
:1018800009942A88398848885F846E847D848C8492
:101890009B84AA84B984C884DF80EE80FD800C819B
:1018A0001B81AA81B981CE0FD11D0FB6F894DEBF7E
:0C18B0000FBECDBFED010895F894FFCFEE
:1018BC00000000000000000000010202030303030B
:1018CC0004040404040404040505050505050505C4
:1018DC0005050505050505050606060606060606A4
:1018EC00060606060606060606060606060606068C
:1018FC000606060606060606070707070707070774
:10190C00070707070707070707070707070707075B
:10191C00070707070707070707070707070707074B
:10192C00070707070707070707070707070707073B
:10193C000707070707070707080808080808080823
:10194C00080808080808080808080808080808080B
:10195C0008080808080808080808080808080808FB
:10196C0008080808080808080808080808080808EB
:10197C0008080808080808080808080808080808DB
:10198C0008080808080808080808080808080808CB
:10199C0008080808080808080808080808080808BB
:1019AC0008080808080808080808080808080808AB
:0A19BC0008080808080808081800C9
:00000001FF
