:100000000C942A000C9447000C9447000C94470071
:100010000C9447000C9447000C9447000C94470044
:100020000C9447000C9447000C9447000C94470034
:100030000C9447000C9447000C9447000C94470024
:100040000C9447000C9447000C9447000C94470014
:100050000C94470011241FBECFE5D8E0DEBFCDBF12
:1000600013E0A0E6B0E0E2E5F4E402C005900D92F2
:10007000AA30B107D9F713E0AAE0B3E001C01D929E
:10008000AC30B107E1F70E9443120C9427220C9484
:100090000000EF92FF920F931F937B018C0120E0F1
:1000A00030E040E05FE40E94490388238CF0C801FF
:1000B000B70120E030E040E05FE40E94C1010E940F
:1000C00007049B01AC01205030404040504806C01E
:1000D000C801B7010E9407049B01AC01B901CA0124
:1000E0001F910F91FF90EF900895A0E0B0E0EBE733
:1000F000F0E00C944F1FDC012B01FA019C9192302F
:1001000008F439C1EB018881823008F433C194309E
:1001100069F4843009F02FC111969C91119789815F
:10012000981709F428C1A9EEB1E025C1843009F47B
:1001300021C18230A9F4923009F01DC19A01AD01AC
:1001400088E0EA010990AE01E90109929E0181501F
:10015000C1F7E201898111969C918923818308C1AD
:10016000923009F407C112962D903C901397EB0141
:100170008A819B811496AD90BD90CD90DC901797AD
:10018000EC80FD800E811F819101281B390BB90184
:1001900037FF04C066277727621B730B6032710537
:1001A0000CF061C0121613066CF537014801062EDB
:1001B00004C096948794779467940A94D2F721E0C8
:1001C00030E040E050E004C0220F331F441F551FB1
:1001D0006A95D2F721503040404050402E213F21B7
:1001E00040235123211531054105510521F021E01E
:1001F00030E040E050E079018A01E628F72808293C
:1002000019293CC0232BD1F1260E371E350146019A
:10021000062E04C096948794779467940A94D2F734
:1002200021E030E040E050E004C0220F331F441FC3
:10023000551F6A95D2F721503040404050402A2146
:100240003B214C215D21211531054105510521F04E
:1002500021E030E040E050E059016A01A628B728CB
:10026000C828D9280BC0821593052CF01C01AA249C
:10027000BB24650103C0EE24FF24870111969C91E5
:10028000D20111968C91981709F445C0992339F041
:10029000A80197012A193B094C095D0906C0A6016E
:1002A00095012E193F09400B510B57FD08C01182D3
:1002B0003382228224833583468357831DC081E0A5
:1002C00081833382228288279927DC01821B930B4A
:1002D000A40BB50B84839583A683B7830DC0220F2F
:1002E000331F441F551F24833583468357838281E0
:1002F000938101979383828324813581468157813D
:10030000DA01C9010197A109B1098F5F9F4FAF4F72
:10031000BF4328F30BC0918333822282EA0CFB1C7B
:100320000C1D1D1DE482F5820683178383E0808304
:10033000248135814681578157FF1AC0C901AA27F8
:1003400097FDA095BA2F81709070A070B0705695EF
:10035000479537952795822B932BA42BB52B848318
:100360009583A683B7838281938101969383828349
:10037000DF0101C0D201CD01CDB7DEB7E2E10C94BF
:100380006B1FA0E2B0E0E7ECF1E00C945B1F698327
:100390007A838B839C832D833E834F835887E9E048
:1003A000EE2EF12CEC0EFD1ECE010196B7010E943F
:1003B0007F058E010F5E1F4FCE010596B8010E948A
:1003C0007F058A8991E089278A8BC701B801AE0130
:1003D000475E5F4F0E9475000E94AA04A096E6E067
:1003E0000C94771FA0E2B0E0E8EFF1E00C945B1F03
:1003F00069837A838B839C832D833E834F835887C5
:10040000F9E0EF2EF12CEC0EFD1ECE010196B701A6
:100410000E947F058E010F5E1F4FCE010596B80129
:100420000E947F05C701B801AE01475E5F4F0E9481
:1004300075000E94AA04A096E6E00C94771FA0E243
:10044000B0E0E5E2F2E00C944F1F69837A838B837E
:100450009C832D833E834F835887CE010196BE0136
:10046000675F7F4F0E947F05CE010596BE016F5EDC
:100470007F4F0E947F059985923088F0898982306C
:10048000C8F0943019F4823051F404C0843029F457
:10049000923081F489EE91E0C6C0923049F420E0B8
:1004A0009A858A89981321E02A87CE010996BBC0D4
:1004B000823049F420E09A858A89981321E02A8BBA
:1004C000CE014196B0C02D843E844F8458886D88FB
:1004D0007E888F88988CEE24FF248701AA24BB2471
:1004E000650140E050E060E070E0E0E0F0E0C10174
:1004F00081709070892BE9F0E60CF71C081D191D1E
:100500009A01AB012A0D3B1D4C1D5D1D80E090E062
:10051000A0E0B0E0E614F7040805190520F481E036
:1005200090E0A0E0B0E0BA01A901480F591F6A1F8E
:100530007B1FAA0CBB1CCC1CDD1C97FE08C081E0F5
:1005400090E0A0E0B0E0A82AB92ACA2ADB2A3196B6
:10055000E032F10549F0660C771C881C991C569412
:10056000479437942794C3CFFA85EA892B893C892D
:100570008B859C85280F391F2E5F3F4F17C0CA01FE
:1005800081709070892B61F016950795F794E79428
:1005900080E090E0A0E0B0E8E82AF92A0A2B1B2BC3
:1005A00076956795579547952F5F3F4F77FDE7CF36
:1005B0000CC0440F551F661F771F17FD4160EE0CDE
:1005C000FF1C001F111F21503040403090E05907A0
:1005D00090E0690790E4790760F32B8F3C8FDB0193
:1005E000CA018F779070A070B07080349105A1051A
:1005F000B10561F447FD0AC0E114F10401051105DC
:1006000029F0405C5F4F6F4F7F4F40781A8EFE1786
:1006100011F081E08A8F4D8F5E8F6F8F78A383E01A
:10062000898FCE0149960E94AA04A096E2E10C941B
:100630006B1FA8E1B0E0EFE1F3E00C945B1F69836E
:100640007A838B839C832D833E834F83588789E0F5
:10065000E82EF12CEC0EFD1ECE010196B7010E9492
:100660007F058E010F5E1F4FCE010596B8010E94D7
:100670007F058985823040F08989823028F0C70162
:10068000B8010E94F70501C08FEF6896E6E00C9470
:10069000771FA8E1B0E0EFE4F3E00C945B1F6983FF
:1006A0007A838B839C832D833E834F83588789E095
:1006B000E82EF12CEC0EFD1ECE010196B7010E9432
:1006C0007F058E010F5E1F4FCE010596B8010E9477
:1006D0007F058985823040F08989823028F0C70102
:1006E000B8010E94F70501C08FEF6896E6E00C9410
:1006F000771FA8E1B0E0EFE7F3E00C945B1F69839C
:100700007A838B839C832D833E834F83588789E034
:10071000E82EF12CEC0EFD1ECE010196B7010E94D1
:100720007F058E010F5E1F4FCE010596B8010E9416
:100730007F058985823040F08989823028F0C701A1
:10074000B8010E94F70501C081E06896E6E00C94CC
:10075000771FA8E0B0E0EFEAF3E00C94581F9B018C
:10076000AC0183E08983DA01C9018827B7FD83954D
:100770009927AA27BB27B82E211531054105510518
:1007800019F482E089833AC08823A9F0203080E000
:10079000380780E0480780E8580729F460E070E0F7
:1007A00080E09FEC30C0EE24FF248701E21AF30AB8
:1007B000040B150B02C079018A018EE1C82ED12CE1
:1007C000DC82CB82ED82FE820F831887C801B701DD
:1007D0000E945B0401971816190684F4082E04C0C1
:1007E000EE0CFF1C001F111F0A94D2F7ED82FE824F
:1007F0000F831887C81AD90ADC82CB82BA82CE014D
:1008000001960E94AA042896E9E00C94741FACE0BB
:10081000B0E0EDE0F4E00C945F1F69837A838B8392
:100820009C83CE010196BE016B5F7F4F0E947F05C6
:100830008D81823061F1823050F1843021F48E81DB
:10084000882351F12EC02F81388537FD20C06E815D
:100850002F3131051CF06623F9F023C08EE190E0C2
:10086000821B930B29853A854B855C8504C0569580
:100870004795379527958A95D2F76623B1F050951D
:100880004095309521953F4F4F4F5F4F0EC020E070
:1008900030E040E050E009C02FEF3FEF4FEF5FE75F
:1008A00004C020E030E040E050E8B901CA012C96D5
:1008B000E2E00C947B1FEF92FF920F931F937B015A
:1008C0008C0180E0E81680E0F80681E0080780E00F
:1008D000180788F48FEFE816F1040105110531F0CF
:1008E00028F088E090E0A0E0B0E017C080E090E061
:1008F000A0E0B0E012C080E0E81680E0F80680E0FA
:10090000080781E0180728F088E190E0A0E0B0E057
:1009100004C080E190E0A0E0B0E020E230E040E000
:1009200050E0281B390B4A0B5B0B04C0169507954A
:10093000F794E7948A95D2F7F701EF50FE4F808144
:10094000281B310941095109C9011F910F91FF90DD
:10095000EF900895DF92EF92FF920F931F93FC01A7
:10096000E480F58006811781D1808081823048F44F
:1009700080E090E0A0E1B0E0E82AF92A0A2B1B2BE6
:10098000A5C0843009F49FC0823021F4EE24FF24F6
:10099000870105C0E114F1040105110519F4E0E037
:1009A000F0E096C0628173819FEF623879070CF0A6
:1009B0005BC022E83FEF261B370B2A3131052CF0B4
:1009C00020E030E040E050E02AC0B801A701022E4C
:1009D00004C076956795579547950A94D2F781E0BC
:1009E00090E0A0E0B0E004C0880F991FAA1FBB1FD1
:1009F0002A95D2F70197A109B1098E219F21A02341
:100A0000B1230097A105B10521F081E090E0A0E0BD
:100A1000B0E09A01AB01282B392B4A2B5B2BDA0172
:100A2000C9018F779070A070B07080349105A105D6
:100A3000B10539F427FF09C0205C3F4F4F4F5F4F8E
:100A400004C0215C3F4F4F4F5F4FE0E0F0E02030AB
:100A5000A0E03A07A0E04A07A0E45A0710F0E1E05E
:100A6000F0E079018A0127C06038710564F5FB0167
:100A7000E158FF4FD801C7018F779070A070B07018
:100A800080349105A105B10539F4E7FE0DC080E47D
:100A900090E0A0E0B0E004C08FE390E0A0E0B0E020
:100AA000E80EF91E0A1F1B1F17FF05C016950795B4
:100AB000F794E794319687E016950795F794E794B5
:100AC0008A95D1F705C0EE24FF248701EFEFF0E00F
:100AD0006E2F679566276795902F9F77D794DD24B3
:100AE000D7948E2F8695492F462B582F5D29B70115
:100AF000CA011F910F91FF90EF90DF900895FC01C4
:100B0000DB01408151812281622F6F7770E0221FCB
:100B10002227221F9381892F880F822B282F30E0D4
:100B2000991F9927991F11969C93119721153105AB
:100B3000A9F5411551056105710511F482E037C031
:100B400082E89FEF13969C938E9312979A01AB01C4
:100B500067E0220F331F441F551F6A95D1F783E0CA
:100B60008C930DC0220F331F441F551F12968D9179
:100B70009C911397019713969C938E931297203014
:100B800080E0380780E0480780E4580758F314965F
:100B90002D933D934D935C93179708952F3F310507
:100BA00079F4411551056105710519F484E08C93C0
:100BB000089564FF03C081E08C9312C01C9210C0A2
:100BC0002F57304013963C932E93129783E08C93CB
:100BD00087E0440F551F661F771F8A95D1F7706411
:100BE00014964D935D936D937C93179708951F937F
:100BF000DC01FB019C91923008F447C08081823077
:100C000008F443C0943051F411961C91843099F546
:100C10008181682F70E0611B71093FC0843021F031
:100C2000923031F48230B9F18181882389F12DC06D
:100C300011961C9111978230F1F081811817D9F427
:100C400012962D913C91139782819381821793077D
:100C500094F028173907BCF014968D919D910D9052
:100C6000BC91A02D248135814681578128173907F1
:100C70004A075B0718F4112341F00AC08217930753
:100C8000A407B50740F4112319F061E070E005C036
:100C90006FEF7FEF02C060E070E0CB011F9108951D
:100CA000DF93CF9300D00F92CDB7DEB79A838983BD
:100CB0006B83ECE3F0E08081882F90E0827090708D
:100CC0009595879581309105A1F3EEE3F0E0898158
:100CD0009A8191838083ACE3B0E0ECE3F0E0808123
:100CE00081608C93EDE3F0E090818B81981791F017
:100CF000EDE3F0E08B818083ACE3B0E0ECE3F0E087
:100D0000808184608C93ACE3B0E0ECE3F0E0808120
:100D100082608C930F900F900F90CF91DF91089588
:100D2000DF93CF93CDB7DEB728970FB6F894DEBF29
:100D30000FBECDBF9C838B837E836D8358874F838B
:100D40001A82198248C0ECE3F0E08081882F90E09D
:100D5000827090709595879581309105A1F3EEE3AF
:100D6000F0E02B813C8189819A81820F931F9183CE
:100D70008083ACE3B0E0ECE3F0E0808181608C93B1
:100D8000EDE3F0E040812D813E8189819A81F90176
:100D9000E80FF91F80814817C9F0ADE3B0E02D815D
:100DA0003E8189819A81F901E80FF91F80818C9336
:100DB000ACE3B0E0ECE3F0E0808184608C93ACE3E2
:100DC000B0E0ECE3F0E0808182608C9389819A81CD
:100DD00001969A83898329813A818F819885281782
:100DE000390708F4B0CF28960FB6F894DEBF0FBECF
:100DF000CDBFCF91DF910895DF93CF9300D0CDB7D2
:100E0000DEB79A838983ECE3F0E08081882F90E05D
:100E1000827090709595879581309105A1F3EEE3EE
:100E2000F0E089819A8191838083ACE3B0E0ECE3C8
:100E3000F0E0808181608C93EDE3F0E080810F90A1
:100E40000F90CF91DF910895DF93CF93CDB7DEB7A9
:100E500028970FB6F894DEBF0FBECDBF9C838B835F
:100E60007E836D8358874F83ECE3F0E08081882F89
:100E700090E0827090709595879581309105A1F3EF
:100E80001A82198221C0EEE3F0E02B813C81898136
:100E90009A81820F931F91838083ACE3B0E0ECE3EF
:100EA000F0E0808181608C932D813E8189819A81DF
:100EB000D901A80FB91FEDE3F0E080818C938981FF
:100EC0009A8101969A83898329813A818F819885B5
:100ED00028173907C0F228960FB6F894DEBF0FBE68
:100EE000CDBFCF91DF910895DF93CF93CDB7DEB71C
:100EF000ECE5F0E08EE48083A3E5B0E0E3E5F0E02C
:100F0000808188608C93A3E5B0E0E3E5F0E0808128
:100F10008F7B8C93A3E5B0E0E3E5F0E08081816016
:100F20008C93A3E5B0E0E3E5F0E080818D7F8C93C6
:100F3000A3E5B0E0E3E5F0E0808184608C93A9E56F
:100F4000B0E0E9E5F0E0808182608C93CF91DF91A1
:100F50000895DF93CF93CDB7DEB7A3E5B0E0E3E527
:100F6000F0E080818E7F8C93A3E5B0E0E3E5F0E0D4
:100F700080818D7F8C93A3E5B0E0E3E5F0E0808194
:100F80008B7F8C93CF91DF910895DF93CF9300D027
:100F90000F92CDB7DEB79B838A8381E089838A81F4
:100FA0009B81009739F08A819B8190930B038093FA
:100FB0000A0301C0198289810F900F900F90CF9181
:100FC000DF910895DF93CF93CDB7DEB7AFE4B0E004
:100FD000EFE4F0E0808180688C93AFE4B0E0EFE470
:100FE000F0E080818F7B8C93AFE4B0E0EFE4F0E041
:100FF000808180628C93AFE4B0E0EFE4F0E0808128
:101000008F7E8C93AFE4B0E0EFE4F0E0808182600B
:101010008C93AFE4B0E0EFE4F0E080818E7F8C93BE
:10102000AEE4B0E0EEE4F0E0808188608C93AEE462
:10103000B0E0EEE4F0E0808180618C93AEE4B0E05B
:10104000EEE4F0E08081887F8C93AEE4B0E0EEE4E3
:10105000F0E0808182608C93CF91DF910895DF93DF
:10106000CF9300D0CDB7DEB79A838983EAE4F0E06E
:1010700089819A81918380830F900F90CF91DF9126
:101080000895DF93CF9300D0CDB7DEB79A838983DD
:10109000E8E4F0E089819A81918380830F900F903A
:1010A000CF91DF910895DF93CF9300D0CDB7DEB716
:1010B0009A838983E6E4F0E089819A819183808331
:1010C0000F900F90CF91DF910895DF93CF93CDB71D
:1010D000DEB7A7E3B0E0E7E3F0E08081806B8C93BC
:1010E000ADE2B0E0EDE2F0E0808181658C93CF91DC
:1010F000DF910895DF93CF93CDB7DEB7A7E3B0E0DC
:10110000E7E3F0E0808180648C93ADE2B0E0EDE253
:10111000F0E0808180648C93CF91DF910895DF931C
:10112000CF930F92CDB7DEB78983EFE2F0E08981EC
:101130008083EEE2F0E08081881F8827881F882F57
:1011400090E090700097A9F3EFE2F0E080810F90BB
:10115000CF91DF910895DF93CF93CDB7DEB7AFE5A1
:10116000B0E0EFE5F0E0808180688C93CF91DF9173
:101170000895DF93CF93CDB7DEB7AFE5B0E0EFE5ED
:10118000F0E080818F778C93CF91DF910895DF938A
:10119000CF9300D000D0CDB7DEB789836A83898131
:1011A000282F30E03C832B838B819C8181309105FB
:1011B000D1F02B813C81223031052CF48B819C8134
:1011C000009761F01EC02B813C812230310581F0F7
:1011D0008B819C818330910581F013C0EAE3F0E0BC
:1011E0008A8180830EC0E7E3F0E08A81808309C0B2
:1011F000E4E3F0E08A81808304C0E1E3F0E08A81E7
:1012000080830F900F900F900F90CF91DF910895F2
:10121000DF93CF93CDB7DEB727970FB6F894DEBF35
:101220000FBECDBF89836A834B838981843008F0E8
:10123000EEC08A81883008F0EAC08B81813009F0E5
:101240006FC08981282F30E03F832E838E819F815C
:101250008130910549F12E813F81223031052CF4F6
:101260008E819F81009761F0D2C02E813F81223014
:10127000310571F18E819F8183309105E9F1C7C0FD
:10128000AAE3B0E0EAE3F0E08081482F8A81282FCA
:1012900030E081E090E0022E02C0880F991F0A948E
:1012A000E2F7842B8C93B3C0A7E3B0E0E7E3F0E070
:1012B0008081482F8A81282F30E081E090E0022E43
:1012C00002C0880F991F0A94E2F7842B8C939FC069
:1012D000A4E3B0E0E4E3F0E08081482F8A81282F86
:1012E00030E081E090E0022E02C0880F991F0A943E
:1012F000E2F7842B8C938BC0A1E3B0E0E1E3F0E054
:101300008081482F8A81282F30E081E090E0022EF2
:1013100002C0880F991F0A94E2F7842B8C9377C040
:101320008B81882309F073C08981282F30E03D83A9
:101330002C838C819D818130910559F12C813D81D7
:10134000223031052CF48C819D81009769F05FC0BB
:101350002C813D812230310589F18C819D81833042
:10136000910509F440C053C0AAE3B0E0EAE3F0E01D
:101370008081482F8A81282F30E081E090E0022E82
:1013800002C0880F991F0A94E2F7809584238C93FA
:101390003EC0A7E3B0E0E7E3F0E08081482F8A8118
:1013A000282F30E081E090E0022E02C0880F991FC4
:1013B0000A94E2F7809584238C9329C0A4E3B0E0DB
:1013C000E4E3F0E08081482F8A81282F30E081E03B
:1013D00090E0022E02C0880F991F0A94E2F78095D0
:1013E00084238C9314C0A1E3B0E0E1E3F0E08081BA
:1013F000482F8A81282F30E081E090E0022E02C041
:10140000880F991F0A94E2F7809584238C9327967E
:101410000FB6F894DEBF0FBECDBFCF91DF91089518
:10142000DF93CF9300D000D0CDB7DEB789836A8336
:101430008981282F30E03C832B838B819C818130F4
:101440009105D1F02B813C81223031052CF48B8128
:101450009C81009761F01EC02B813C8122303105B8
:1014600081F08B819C818330910581F013C0EBE387
:10147000F0E08A8180830EC0E8E3F0E08A81808317
:1014800009C0E5E3F0E08A81808304C0E2E3F0E094
:101490008A8180830F900F900F900F90CF91DF91F2
:1014A0000895DF93CF93CDB7DEB727970FB6F894A3
:1014B000DEBF0FBECDBF89836A834B8389818430B1
:1014C00008F0EEC08A81883008F0EAC08B81813054
:1014D00009F06FC08981282F30E03F832E838E81F1
:1014E0009F818130910549F12E813F812230310564
:1014F0002CF48E819F81009761F0D2C02E813F81B4
:101500002230310571F18E819F8183309105E9F19F
:10151000C7C0ABE3B0E0EBE3F0E08081482F8A8105
:10152000282F30E081E090E0022E02C0880F991F42
:101530000A94E2F7842B8C93B3C0A8E3B0E0E8E30D
:10154000F0E08081482F8A81282F30E081E090E010
:10155000022E02C0880F991F0A94E2F7842B8C9305
:101560009FC0A5E3B0E0E5E3F0E08081482F8A81E9
:10157000282F30E081E090E0022E02C0880F991FF2
:101580000A94E2F7842B8C938BC0A2E3B0E0E2E3F1
:10159000F0E08081482F8A81282F30E081E090E0C0
:1015A000022E02C0880F991F0A94E2F7842B8C93B5
:1015B00077C08B81882309F073C08981282F30E0A0
:1015C0003D832C838C819D818130910559F12C8143
:1015D0003D81223031052CF48C819D81009769F08A
:1015E0005FC02C813D812230310589F18C819D8144
:1015F0008330910509F440C053C0ABE3B0E0EBE3A6
:10160000F0E08081482F8A81282F30E081E090E04F
:10161000022E02C0880F991F0A94E2F78095842356
:101620008C933EC0A8E3B0E0E8E3F0E08081482F6F
:101630008A81282F30E081E090E0022E02C0880FDE
:10164000991F0A94E2F7809584238C9329C0A5E31F
:10165000B0E0E5E3F0E08081482F8A81282F30E078
:1016600081E090E0022E02C0880F991F0A94E2F7F1
:10167000809584238C9314C0A2E3B0E0E2E3F0E011
:101680008081482F8A81282F30E081E090E0022E6F
:1016900002C0880F991F0A94E2F7809584238C93E7
:1016A00027960FB6F894DEBF0FBECDBFCF91DF9166
:1016B0000895DF93CF9300D000D00F92CDB7DEB75F
:1016C0008A836B838A81843008F06BC08B81883079
:1016D00008F067C08A81282F30E03D832C834C813D
:1016E0005D814130510541F18C819D8182309105B0
:1016F00034F42C813D812115310561F052C04C81BB
:101700005D814230510551F18C819D81833091057D
:10171000B9F147C0E9E3F0E08081282F30E08B8108
:10172000882F90E0A90102C0559547958A95E2F768
:10173000CA018170898335C0E6E3F0E08081282FFB
:1017400030E08B81882F90E0A90102C05595479524
:101750008A95E2F7CA018170898323C0E3E3F0E050
:101760008081282F30E08B81882F90E0A90102C072
:10177000559547958A95E2F7CA018170898311C012
:10178000E0E3F0E08081282F30E08B81882F90E02B
:10179000A90102C0559547958A95E2F7CA01817063
:1017A000898389810F900F900F900F900F90CF91A8
:1017B000DF910895DF93CF93CDB7DEB783E065E087
:1017C00041E00E94080983E064E041E00E940809CA
:1017D0000E94E2078FE19EE40E945308ECE4F0E0EF
:1017E000118210820E94040C0E941A0CCF91DF918A
:1017F0000895DF93CF93CDB7DEB780ED97E00E94D9
:101800002F08CF91DF910895DF93CF93CDB7DEB747
:101810008CED95E00E942F08CF91DF910895DF9322
:10182000CF93CDB7DEB780ED97E00E944108CF910E
:10183000DF910895DF93CF93CDB7DEB78CED95E0C0
:101840000E944108CF91DF910895DF93CF9300D09C
:10185000CDB7DEB7EAE4F0E08081918127E0803DFA
:10186000920719F481E089830BC0E8E4F0E08081FD
:10187000918125E08C3D920711F4198201C002C0CC
:1018800089818A838A810F900F90CF91DF9108958B
:10189000DF93CF9300D0CDB7DEB7E8E4F0E08081EE
:1018A000918127E0803D920719F481E089830BC084
:1018B000E8E4F0E08081918125E08C3D920711F40D
:1018C000198201C002C089818A838A810F900F909A
:1018D000CF91DF910895DF93CF9300D0CDB7DEB7DE
:1018E00089836A8389816A8141E00E9408090F9097
:1018F0000F90CF91DF910895DF93CF9300D0CDB7B4
:10190000DEB789836A8389816A8141E00E94510A36
:101910000F900F90CF91DF910895DF93CF9300D078
:10192000CDB7DEB789836A8389816A8140E00E94EE
:10193000510A0F900F90CF91DF910895DF93CF93CD
:1019400000D0CDB7DEB789836A8389816A810E941E
:10195000590B0F900F90CF91DF910895DF93CF93A4
:10196000CDB7DEB72E970FB6F894DEBF0FBECDBF52
:10197000A2E3B0E0E2E3F0E08081877F8C9380E037
:1019800090E0A8E4B2E48B879C87AD87BE876B8527
:101990007C858D859E8520E030E04AEF54E40E94EE
:1019A0001F02DC01CB018F839887A987BA876F81DB
:1019B000788589859A8520E030E040E85FE30E94E1
:1019C000790388232CF481E090E09E838D833FC0CF
:1019D0006F81788589859A8520E03FEF4FE757E44E
:1019E0000E94190318164CF56B857C858D859E85A4
:1019F00020E030E040E251E40E941F02DC01CB0114
:101A0000BC01CD010E944900DC01CB019E838D8386
:101A10000FC088EC90E09C838B838B819C81019725
:101A2000F1F79C838B838D819E8101979E838D83AB
:101A30008D819E81009769F714C06F8178858985B3
:101A40009A850E944900DC01CB019E838D838D81A4
:101A50009E819A83898389819A810197F1F79A837C
:101A60008983A2E3B0E0E2E3F0E0808188608C93B8
:101A70002E960FB6F894DEBF0FBECDBFCF91DF918B
:101A80000895DF93CF93CDB7DEB7E4E3F0E01082A3
:101A9000A2E3B0E0E2E3F0E0808184608C93A2E313
:101AA000B0E0E2E3F0E080818D7F8C930E94AE0C89
:101AB000E4E3F0E08FEF8083A2E3B0E0E2E3F0E064
:101AC00080818B7F8C93CF91DF910895DF93CF93AB
:101AD000CDB7DEB76C970FB6F894DEBF0FBECDBFA3
:101AE00080E090E0A0EAB1E4898F9A8FAB8FBC8F41
:101AF000698D7A8D8B8D9C8D20E030E04AEF54E427
:101B00000E941F02DC01CB018D8B9E8BAF8BB88FA7
:101B10006D897E898F89988D20E030E040E85FE311
:101B20000E94790388232CF481E090E09C8B8B8BBE
:101B30003FC06D897E898F89988D20E03FEF4FE708
:101B400057E40E94190318164CF5698D7A8D8B8D18
:101B50009C8D20E030E040E251E40E941F02DC0155
:101B6000CB01BC01CD010E944900DC01CB019C8B63
:101B70008B8B0FC088EC90E09A8B898B89899A892E
:101B80000197F1F79A8B898B8B899C8901979C8BA4
:101B90008B8B8B899C89009769F714C06D897E892E
:101BA0008F89988D0E944900DC01CB019C8B8B8B27
:101BB0008B899C89988B8F878F8598890197F1F7FE
:101BC000988B8F87A1E3B0E0E1E3F0E080818E6045
:101BD0008C93A2E3B0E0E2E3F0E08081817F8C931C
:101BE000E4E3F0E08FEF808380E090E0A0E7B1E4F1
:101BF0008B879C87AD87BE876B857C858D859E8511
:101C000020E030E04AEF54E40E941F02DC01CB01E7
:101C10008F839887A987BA876F81788589859A8508
:101C200020E030E040E85FE30E94790388232CF451
:101C300081E090E09E838D833FC06F8178858985A8
:101C40009A8520E03FEF4FE757E40E9419031816EA
:101C50004CF56B857C858D859E8520E030E040E2EB
:101C600051E40E941F02DC01CB01BC01CD010E94A6
:101C70004900DC01CB019E838D830FC088EC90E08E
:101C80009C838B838B819C810197F1F79C838B8351
:101C90008D819E8101979E838D838D819E8100978A
:101CA00069F714C06F81788589859A850E944900FB
:101CB000DC01CB019E838D838D819E819A838983F4
:101CC00089819A810197F1F79A8389830E947D0E19
:101CD00088E30E94A80E86E00E94A80E80E80E9479
:101CE000A80E8CE00E94A80E6C960FB6F894DEBF8A
:101CF0000FBECDBFCF91DF910895DF93CF93CDB7C6
:101D0000DEB781E00E94A80ECF91DF910895DF93A6
:101D1000CF9300D0CDB7DEB789836A8389818823CA
:101D200041F48A81803178F48A8180580E94A80E1B
:101D30000AC08981813039F48A81803120F48A8116
:101D400080540E94A80E0F900F90CF91DF910895BC
:101D5000DF93CF930F92CDB7DEB789830E94410DF9
:101D6000E5E3F0E089818083A2E3B0E0E2E3F0E024
:101D70008081897F8C930E94AE0C0F90CF91DF9170
:101D80000895DF93CF930F92CDB7DEB789830E947A
:101D9000410DE5E3F0E089818083A2E3B0E0E2E376
:101DA000F0E080818B7F8C93A2E3B0E0E2E3F0E08F
:101DB000808182608C930E94AE0C0F90CF91DF9156
:101DC0000895DF93CF9300D000D0CDB7DEB79C83CA
:101DD0008B831A82198227C089819A8101969A83FE
:101DE0008983EB81FC8120818B819C8101969C837E
:101DF0008B83822F0E94C10E89819A818031910547
:101E000029F481E060E00E94870E0DC089819A81EB
:101E10008032910541F40E947D0E80E060E00E94D6
:101E2000870E1A821982EB81FC8180818823A1F6BA
:101E30000F900F900F900F90CF91DF910895DF9347
:101E4000CF93CDB7DEB729970FB6F894DEBF0FBE9C
:101E5000CDBF9987888700D000D000D0EDB7FEB7FE
:101E60003196CE0101969183808380E690E0938342
:101E7000828388859985958384830E94861F8DB788
:101E80009EB706960FB6F8949EBF0FBE8DBFCE01CB
:101E900001960E94E10E29960FB6F894DEBF0FBEA0
:101EA000CDBFCF91DF910895DF93CF93CDB7DEB74C
:101EB000A8970FB6F894DEBF0FBECDBF6F8F78A383
:101EC00089A39AA36F8D78A189A19AA120E030E01F
:101ED00040E050E00E94790388232CF423E630E0B0
:101EE00038A72FA304C045E650E058A74FA38FA101
:101EF00098A59E878D876F8D78A189A19AA120E0F2
:101F000030E040E050E00E947903882364F48F8D34
:101F100098A1A9A1BAA19C01AD0150582BA33CA343
:101F20004DA35EA308C08F8D98A1A9A1BAA18BA3D0
:101F30009CA3ADA3BEA32BA13CA14DA15EA129876B
:101F40003A874B875C8769857A858B859C850E945B
:101F50000704DC01CB0198878F838F819885AA279E
:101F600097FDA095BA2FBC01CD010E94A9039B014A
:101F7000AC0169857A858B859C850E94C101DC0155
:101F8000CB018B839C83AD83BE836B817C818D81F0
:101F90009E8120E030E44CE156E40E941F02DC0107
:101FA000CB01BC01CD010E940704DC01CB019A8367
:101FB00089834DB75EB74A5050400FB6F8945EBF64
:101FC0000FBE4DBFEDB7FEB73196CE010F96918390
:101FD000808386E690E0938382838D859E859583BA
:101FE00084838F8198859783868389819A8191875D
:101FF00080870E94861F8DB79EB70A960FB6F89409
:102000009EBF0FBE8DBFCE010F960E94E10EA89617
:102010000FB6F894DEBF0FBECDBFCF91DF9108950C
:10202000DF93CF93CDB7DEB780E060E040E00E9461
:10203000080980E061E040E00E94080980E062E079
:1020400040E00E94080980E063E040E00E94080947
:1020500080E060E041E00E94510A80E061E041E000
:102060000E94510A80E062E041E00E94510A80E053
:1020700063E041E00E94510A80E064E041E00E9498
:10208000080980E065E041E00E94080980E066E020
:1020900041E00E94080980E067E041E00E940809F1
:1020A00080E064E041E00E94510A80E065E041E0A8
:1020B0000E94510A80E066E041E00E94510A80E0FF
:1020C00067E041E00E94510ACF91DF910895DF93CC
:1020D000CF93CDB7DEB7E7970FB6F894DEBF0FBE4C
:1020E000CDBF198A188A1F861A8A1B8A1C8A1D8AE4
:1020F0001E8A81E08F8B82E0888F83E0898F1A8E21
:102100001B8E1C8E1D8E84E08E8F85E08F8F86E067
:1021100088A387E089A3CE0182969CAB8BABE9EFC5
:10212000F2E0FEABEDABF0E1FFABEDA9FEA9008064
:102130008DA99EA901969EAB8DABEBA9FCA900824F
:102140008BA99CA901969CAB8BAB9FA991509FAB8F
:10215000EFA9EE2351F7188A0EC18889282F30E0A5
:10216000CE014A96FC01E20FF31F40818889282F97
:1021700030E0CE014E96FC01E20FF31F9081842FD8
:10218000692F40E00E94510A198AD7C08989282FF7
:1021900030E0CE014296FC01E20FF31F40818989B5
:1021A000282F30E0CE014696FC01E20FF31F90810C
:1021B000842F692F0E94590B8F878F85882309F000
:1021C000B9C080E090E0A8E4B2E48B879C87AD873B
:1021D000BE876B857C858D859E8520E030E04AEF4B
:1021E00054E40E941F02DC01CB018F839887A987EA
:1021F000BA876F81788589859A8520E030E040E84C
:102200005FE30E94790388232CF481E090E09E83B1
:102210008D833FC06F81788589859A8520E03FEF67
:102220004FE757E40E94190318164CF56B857C851F
:102230008D859E8520E030E040E251E40E941F023F
:10224000DC01CB01BC01CD010E944900DC01CB01C6
:102250009E838D830FC088EC90E09C838B838B8161
:102260009C810197F1F79C838B838D819E810197DF
:102270009E838D838D819E81009769F714C06F8145
:10228000788589859A850E944900DC01CB019E836F
:102290008D838D819E819A83898389819A8101971B
:1022A000F1F79A8389838989282F30E0CE014296FD
:1022B000FC01E20FF31F40818989282F30E0CE0115
:1022C0004696FC01E20FF31F9081842F692F0E9434
:1022D000590B8F8717C08989282F30E0CE0142968D
:1022E000FC01E20FF31F40818989282F30E0CE01E5
:1022F0004696FC01E20FF31F9081842F692F0E9404
:10230000590B8F878F85882331F38989282F30E0F7
:102310008889482F50E0220F331F220F331FCE0130
:102320000196820F931F840F951FFC01B196808147
:102330008AAB27C089898F5F898B8989843008F4AB
:1023400025CF8889282F30E0CE014A96FC01E20F84
:10235000F31F40818889282F30E0CE014E96FC0182
:10236000E20FF31F9081842F692F41E00E94510AF0
:1023700088898F5F888B8889843008F4EECE9FEF40
:102380009AAB8AA9E7960FB6F894DEBF0FBECDBF11
:10239000CF91DF910895DF93CF9300D000D0CDB7D8
:1023A000DEB789838981282F30E03C832B838B81A2
:1023B0009C818433910509F44BC02B813C812533EA
:1023C0003105DCF48B819C8181339105C1F12B8136
:1023D0003C812233310534F48B819C81803391051B
:1023E00061F148C02B813C812233310559F18B8149
:1023F0009C818333910549F13DC02B813C8127337A
:10240000310579F18B819C81883391055CF42B81B6
:102410003C8125333105F9F08B819C818633910510
:10242000E9F028C02B813C8128333105E9F08B810C
:102430009C8189339105D9F01DC01A821CC091E09E
:102440009A8319C022E02A8316C033E03A8313C06E
:1024500084E08A8310C095E09A830DC026E02A8329
:102460000AC037E03A8307C088E08A8304C099E055
:102470009A8301C01A828A810F900F900F900F905B
:10248000CF91DF910895DF93CF93CDB7DEB70E9450
:102490004E120E946D120E948012FDCFDF93CF93E7
:1024A000CDB7DEB70E94AB080E94E2070E94650824
:1024B0000E94DA0B0E9410100E94660D81E060E01D
:1024C0000E946B0C81E061E00E946B0C81E062E095
:1024D0000E946B0CCF91DF910895DF93CF93CDB71E
:1024E000DEB70E947D0E80E060E00E94870E80E7EC
:1024F00090E00E94E10E0E947D0ECF91DF91089541
:102500000F931F93DF93CF93CDB7DEB7C857D0405B
:102510000FB6F894DEBF0FBECDBFFE01EC58FF4FE3
:102520008FEF8083FE01ED58FF4F1082FE01EF58C0
:10253000FF4F10820E947D0E80E060E00E94870EB7
:102540008DE890E00E94E10E81E060E00E94870E3D
:102550008BE990E00E94E10EFE01EC58FF4F8FEFF7
:10256000808306C00E946710FE01EC58FF4F8083F5
:10257000FE01EC58FF4F80818F3FA1F3FE01EC5824
:10258000FF4F8081813309F048C30E947D0E80E0B7
:1025900060E00E94870E8BEA90E00E94E10E81E0ED
:1025A00060E00E94870E8FE00E94A80E32C0FE01FC
:1025B000EC58FF4F8FEF808306C00E946710FE012A
:1025C000EC58FF4F8083FE01EC58FF4F80818F3F16
:1025D000A1F3FE01EC58FF4F80810E94C10EFE0165
:1025E000ED58FF4F8081282F30E0CE018B589F4F50
:1025F000DC01A20FB31FFE01EC58FF4F80818C93CA
:10260000DE01AD58BF4FFE01ED58FF4F80818F5F57
:102610008C93FE01ED58FF4F8081843040F28CE0B6
:102620000E94A80ECE018B589F4F21EF32E0B901D6
:1026300044E00E949218FE01EE58FF4F8083FE0195
:10264000ED58FF4F1082FE01EE58FF4F8081813020
:1026500039F4FE01EF58FF4F10820E94CC1856C586
:10266000DE01AF58BF4FFE01EF58FF4F80818F5FF3
:102670008C930E947D0E80E060E00E94870E8DEBBF
:1026800090E00E94E10EFE01EF58FF4F8081833001
:1026900008F47BCF0E947D0E80E060E00E94870EF0
:1026A0008DEC90E00E94E10EFE01E359FF4F80E0C7
:1026B00090E8ABE3B5E480839183A283B3838E017A
:1026C00007591F4FFE01E359FF4F608171818281DD
:1026D000938120E030E04AEF54E40E941F02DC01C5
:1026E000CB01F80180839183A283B383FE01E75974
:1026F000FF4F608171818281938120E030E040E86A
:102700005FE30E947903882344F4FE01E959FF4FF7
:1027100081E090E09183808364C0FE01E759FF4F20
:10272000608171818281938120E03FEF4FE757E420
:102730000E94190318160CF043C0FE01E359FF4F25
:10274000608171818281938120E030E040E251E438
:102750000E941F02DC01CB018E0109591F4FBC01F1
:10276000CD010E944900DC01CB01F80191838083F7
:102770001FC0FE01EB59FF4F88EC90E091838083EE
:10278000FE01EB59FF4F808191810197F1F7FE0126
:10279000EB59FF4F91838083DE01A959BF4FFE01A2
:1027A000E959FF4F80819181019711969C938E93F7
:1027B000FE01E959FF4F808191810097D1F627C032
:1027C0008E0109591F4FFE01E759FF4F608171814A
:1027D000828193810E944900DC01CB01F801918341
:1027E0008083DE01AD59BF4FFE01E959FF4F808163
:1027F00091818D939C93FE01ED59FF4F80819181D2
:102800000197F1F7FE01ED59FF4F918380830E94FC
:102810007D0E8BED90E00E94E10E81E060E00E9471
:10282000870E87EE90E00E94E10E81E062E00E9458
:102830007C0CFE01E15AFF4F80E090E4ACE9B5E486
:1028400080839183A283B3838E01055A1F4FFE01BB
:10285000E15AFF4F608171818281938120E030E0F5
:102860004AEF54E40E941F02DC01CB01F80180838F
:102870009183A283B383FE01E55AFF4F608171818A
:102880008281938120E030E040E85FE30E94790399
:10289000882344F4FE01E75AFF4F81E090E09183E2
:1028A000808364C0FE01E55AFF4F6081718182819F
:1028B000938120E03FEF4FE757E40E941903181679
:1028C0000CF043C0FE01E15AFF4F608171818281AB
:1028D000938120E030E040E251E40E941F02DC01DD
:1028E000CB018E01075A1F4FBC01CD010E94490048
:1028F000DC01CB01F801918380831FC0FE01E95AFE
:10290000FF4F88EC90E091838083FE01E95AFF4FEE
:10291000808191810197F1F7FE01E95AFF4F918380
:102920008083DE01A75ABF4FFE01E75AFF4F808127
:102930009181019711969C938E93FE01E75AFF4F68
:10294000808191810097D1F627C08E01075A1F4FD1
:10295000FE01E55AFF4F60817181828193810E945F
:102960004900DC01CB01F80191838083DE01AB5A81
:10297000BF4FFE01E75AFF4F808191818D939C9359
:10298000FE01EB5AFF4F808191810197F1F7FE0123
:10299000EB5AFF4F91838083FE01EF5AFF4F80E097
:1029A00090E4ACE9B5E480839183A283B3838E0184
:1029B000035B1F4FFE01EF5AFF4F608171818281DF
:1029C000938120E030E04AEF54E40E941F02DC01D2
:1029D000CB01F80180839183A283B383FE01E35B83
:1029E000FF4F608171818281938120E030E040E877
:1029F0005FE30E947903882344F4FE01E55BFF4F07
:102A000081E090E09183808364C0FE01E35BFF4F2F
:102A1000608171818281938120E03FEF4FE757E42D
:102A20000E94190318160CF043C0FE01EF5AFF4F25
:102A3000608171818281938120E030E040E251E445
:102A40000E941F02DC01CB018E01055B1F4FBC0100
:102A5000CD010E944900DC01CB01F8019183808304
:102A60001FC0FE01E75BFF4F88EC90E091838083FD
:102A7000FE01E75BFF4F808191810197F1F7FE0135
:102A8000E75BFF4F91838083DE01A55BBF4FFE01B3
:102A9000E55BFF4F80819181019711969C938E9306
:102AA000FE01E55BFF4F808191810097D1F627C041
:102AB0008E01055B1F4FFE01E35BFF4F608171815B
:102AC000828193810E944900DC01CB01F80191834E
:102AD0008083DE01A95BBF4FFE01E55BFF4F808174
:102AE00091818D939C93FE01E95BFF4F80819181E1
:102AF0000197F1F7FE01E95BFF4F91838083FE01AF
:102B0000ED5BFF4F80E090E4ACE9B5E48083918316
:102B1000A283B3838E01015C1F4FFE01ED5BFF4F6B
:102B2000608171818281938120E030E04AEF54E43A
:102B30000E941F02DC01CB01F80180839183A283F4
:102B4000B383FE01FF96608171818281938120E0D1
:102B500030E040E85FE30E94790388232CF481E0B1
:102B600090E09EAF8DAF46C0FE01FF9660817181FF
:102B70008281938120E03FEF4FE757E40E941903E1
:102B8000181664F5FE01ED5BFF4F60817181828153
:102B9000938120E030E040E251E40E941F02DC011A
:102BA000CB01BC01CD010E944900DC01CB019EAFED
:102BB0008DAF0FC088EC90E09CAF8BAF8BAD9CAD20
:102BC0000197F1F79CAF8BAF8DAD9EAD01979EAF96
:102BD0008DAF8DAD9EAD009769F716C0FE01FF96D3
:102BE00060817181828193810E944900DC01CB0167
:102BF0009EAF8DAF8DAD9EAD9AAF89AF89AD9AADC9
:102C00000197F1F79AAF89AF81E062E00E948D0CE5
:102C1000FE01EF58FF4F10828DCCFE01EC58FF4FA4
:102C20008081823309F072C20E947D0E80E060E0F4
:102C30000E94870E8BEA90E00E94E10E81E060E046
:102C40000E94870E8EE00E94A80E32C0FE01EC5852
:102C5000FF4F8FEF808306C00E946710FE01EC5883
:102C6000FF4F8083FE01EC58FF4F80818F3FA1F31F
:102C7000FE01EC58FF4F80810E94C10EFE01ED580D
:102C8000FF4F8081282F30E0CE018B589F4FDC0111
:102C9000A20FB31FFE01EC58FF4F80818C93DE0121
:102CA000AD58BF4FFE01ED58FF4F80818F5F8C9371
:102CB000FE01ED58FF4F8081843040F28CE00E948D
:102CC000A80EFE01ED58FF4F1082CE018B589F4F8A
:102CD00025EF32E0B90144E00E949218FE01EE585F
:102CE000FF4F8083FE01EE58FF4F8081813039F421
:102CF000FE01EF58FF4F10820E945F1C07C2DE01E9
:102D0000AF58BF4FFE01EF58FF4F80818F5F8C930C
:102D10000E947D0E80E060E00E94870E8DEB90E0C7
:102D20000E94E10EFE01EF58FF4F8081833008F4CE
:102D30007BCF0E947D0E80E060E00E94870E8DECCC
:102D400090E00E94E10E80E090E8ABE3B5E48DAB4B
:102D50009EABAFABB8AF6DA97EA98FA998AD20E0AF
:102D600030E04AEF54E40E941F02DC01CB0189AB42
:102D70009AABABABBCAB69A97AA98BA99CA920E0A3
:102D800030E040E85FE30E94790388232CF481E07F
:102D900090E098AB8FA73FC069A97AA98BA99CA99D
:102DA00020E03FEF4FE757E40E94190318164CF557
:102DB0006DA97EA98FA998AD20E030E040E251E4F2
:102DC0000E941F02DC01CB01BC01CD010E94490021
:102DD000DC01CB0198AB8FA70FC088EC90E09EA7D9
:102DE0008DA78DA59EA50197F1F79EA78DA78FA50D
:102DF00098A9019798AB8FA78FA598A9009769F715
:102E000014C069A97AA98BA99CA90E944900DC0178
:102E1000CB0198AB8FA78FA598A99CA78BA78BA553
:102E20009CA50197F1F79CA78BA70E947D0E8BEDC7
:102E300090E00E94E10E81E060E00E94870E87EE44
:102E400090E00E94E10E81E062E00E947C0C80E054
:102E500090E4ACE9B5E48FA398A7A9A7BAA76FA19E
:102E600078A589A59AA520E030E04AEF54E40E94B5
:102E70001F02DC01CB018BA39CA3ADA3BEA36BA15E
:102E80007CA18DA19EA120E030E040E85FE30E949C
:102E9000790388232CF481E090E09AA389A33FC0B2
:102EA0006BA17CA18DA19EA120E03FEF4FE757E4ED
:102EB0000E94190318164CF56FA178A589A59AA54B
:102EC00020E030E040E251E40E941F02DC01CB012F
:102ED000BC01CD010E944900DC01CB019AA389A36A
:102EE0000FC088EC90E098A38F8F8F8D98A10197E9
:102EF000F1F798A38F8F89A19AA101979AA389A32B
:102F000089A19AA1009769F714C06BA17CA18DA13A
:102F10009EA10E944900DC01CB019AA389A389A14B
:102F20009AA19E8F8D8F8D8D9E8D0197F1F79E8F2B
:102F30008D8F80E090E4ACE9B5E4898F9A8FAB8FF8
:102F4000BC8F698D7A8D8B8D9C8D20E030E04AEFAF
:102F500054E40E941F02DC01CB018D8B9E8BAF8B52
:102F6000B88F6D897E898F89988D20E030E040E8A8
:102F70005FE30E94790388232CF481E090E09C8B2E
:102F80008B8B3FC06D897E898F89988D20E03FEFC4
:102F90004FE757E40E94190318164CF5698D7A8D96
:102FA0008B8D9C8D20E030E040E251E40E941F02B6
:102FB000DC01CB01BC01CD010E944900DC01CB0149
:102FC0009C8B8B8B0FC088EC90E09A8B898B8989C6
:102FD0009A890197F1F79A8B898B8B899C89019744
:102FE0009C8B8B8B8B899C89009769F714C06D89AA
:102FF0007E898F89988D0E944900DC01CB019C8BD2
:103000008B8B8B899C89988B8F878F85988901976B
:10301000F1F7988B8F8780E090E4ACE9B5E48B877B
:103020009C87AD87BE876B857C858D859E8520E0DE
:1030300030E04AEF54E40E941F02DC01CB018F8391
:103040009887A987BA876F81788589859A8520E0D6
:1030500030E040E85FE30E94790388232CF481E0AC
:1030600090E09E838D833FC06F81788589859A85A6
:1030700020E03FEF4FE757E40E94190318164CF584
:103080006B857C858D859E8520E030E040E251E4B3
:103090000E941F02DC01CB01BC01CD010E9449004E
:1030A000DC01CB019E838D830FC088EC90E09C8374
:1030B0008B838B819C810197F1F79C838B838D811E
:1030C0009E8101979E838D838D819E81009769F7F4
:1030D00014C06F81788589859A850E944900DC013A
:1030E000CB019E838D838D819E819A838983898183
:1030F0009A810197F1F79A83898381E062E00E94C7
:103100008D0CFE01EF58FF4F108214CAC858DF4FD4
:103110000FB6F894DEBF0FBECDBFCF91DF911F91E8
:103120000F910895DF93CF93CDB7DEB727970FB6F2
:10313000F894DEBF0FBECDBF9B838A837D836C83F3
:103140004E83198219C08981282F30E08A819B81A2
:10315000FC01E20FF31F40818981282F30E08C8130
:103160009D81FC01E20FF31F8081481711F01F823F
:1031700009C089818F5F898399818E81981718F39F
:1031800081E08F838F8127960FB6F894DEBF0FBE44
:10319000CDBFCF91DF910895DF93CF93CDB7DEB749
:1031A000ED970FB6F894DEBF0FBECDBF8FEF8DAF9A
:1031B0001CAE1BAE1AAE19AE81E060E00E947C0C22
:1031C0000E947D0E80E060E00E94870E8EEE90E00F
:1031D0000E94E10E0E947D0E8CEF90E00E94E10EB5
:1031E00081E060E00E94870E8CE091E00E94E10E99
:1031F0008FEF8DAF03C00E9467108DAF8DAD8F3FF5
:10320000D1F30E947D0E80E060E00E94870E8DADBC
:10321000813309F0ADC081E10E948F0880E090E029
:10322000A8ECB2E48DAB9EABAFABB8AF6DA97EA9F5
:103230008FA998AD20E030E04AEF54E40E941F02CD
:10324000DC01CB0189AB9AABABABBCAB69A97AA96A
:103250008BA99CA920E030E040E85FE30E9479035D
:1032600088232CF481E090E098AB8FA73FC069A938
:103270007AA98BA99CA920E03FEF4FE757E40E9471
:10328000190318164CF56DA97EA98FA998AD20E0F9
:1032900030E040E251E40E941F02DC01CB01BC019E
:1032A000CD010E944900DC01CB0198AB8FA70FC074
:1032B00088EC90E09EA78DA78DA59EA50197F1F7BC
:1032C0009EA78DA78FA598A9019798AB8FA78FA5CB
:1032D00098A9009769F714C069A97AA98BA99CA934
:1032E0000E944900DC01CB0198AB8FA78FA598A95C
:1032F0009CA78BA78BA59CA50197F1F79CA78BA7F3
:103300008FEF0E948F088AAF8AAD813029F48BE15C
:1033100091E00E94E10E0CC08AAD882329F48AE274
:1033200091E00E94E10E04C08AE391E00E94E10E68
:1033300081E060E00E94870E80E491E00E94E10E4F
:103340008FEF8DAF03C00E9467108DAF8DAD8F3FA3
:10335000D1F38DAD813321F481E20E948F083ACF01
:103360008DAD823309F036CF81E30E948F0832CFD2
:103370008DAD823309F0A8C082E10E948F0880E001
:1033800090E0A8ECB2E48FA398A7A9A7BAA76FA171
:1033900078A589A59AA520E030E04AEF54E40E9480
:1033A0001F02DC01CB018BA39CA3ADA3BEA36BA129
:1033B0007CA18DA19EA120E030E040E85FE30E9467
:1033C000790388232CF481E090E09AA389A33FC07D
:1033D0006BA17CA18DA19EA120E03FEF4FE757E4B8
:1033E0000E94190318164CF56FA178A589A59AA516
:1033F00020E030E040E251E40E941F02DC01CB01FA
:10340000BC01CD010E944900DC01CB019AA389A334
:103410000FC088EC90E098A38F8F8F8D98A10197B3
:10342000F1F798A38F8F89A19AA101979AA389A3F5
:1034300089A19AA1009769F714C06BA17CA18DA105
:103440009EA10E944900DC01CB019AA389A389A116
:103450009AA19E8F8D8F8D8D9E8D0197F1F79E8FF6
:103460008D8F8FEF0E948F088AAF8AAD813029F44B
:103470008BE191E00E94E10E07C08AAD882321F420
:103480008AE291E00E94E10E81E060E00E94870EF6
:1034900080E491E00E94E10E8FEF8DAF03C00E94A7
:1034A00067108DAF8DAD8F3FD1F38DAD813321F49A
:1034B00082E20E948F088ECE8DAD823309F08ACED3
:1034C00082E30E948F0886CE8DAD833309F0A8C0B9
:1034D00083E10E948F0880E090E0A8ECB2E4898F3D
:1034E0009A8FAB8FBC8F698D7A8D8B8D9C8D20E0F0
:1034F00030E04AEF54E40E941F02DC01CB018D8BC7
:103500009E8BAF8BB88F6D897E898F89988D20E0D7
:1035100030E040E85FE30E94790388232CF481E0E7
:1035200090E09C8B8B8B3FC06D897E898F89988DB5
:1035300020E03FEF4FE757E40E94190318164CF5BF
:10354000698D7A8D8B8D9C8D20E030E040E251E4D6
:103550000E941F02DC01CB01BC01CD010E94490089
:10356000DC01CB019C8B8B8B0FC088EC90E09A8B9D
:10357000898B89899A890197F1F79A8B898B8B8935
:103580009C8901979C8B8B8B8B899C89009769F711
:1035900014C06D897E898F89988D0E944900DC0155
:1035A000CB019C8B8B8B8B899C89988B8F878F858C
:1035B00098890197F1F7988B8F878FEF0E948F087A
:1035C0008AAF8AAD813029F48BE191E00E94E10E4F
:1035D00007C08AAD882321F48AE291E00E94E10EBF
:1035E00081E060E00E94870E80E491E00E94E10E9D
:1035F0008FEF8DAF03C00E9467108DAF8DAD8F3FF1
:10360000D1F38DAD813321F483E20E948F08E2CDA6
:103610008DAD823309F0DECD83E30E948F08DACDD1
:103620008DAD843309F042C10E947D0E80E060E0E0
:103630000E94870E8BE491E00E94E10E81E060E041
:103640000E94870E8AE591E00E94E10E8FEF8DAF18
:1036500003C00E9467108DAF8DAD8F3FD1F30E94E4
:103660007D0E80E060E00E94870E8DAD813309F011
:10367000A8C084E10E948F0880E090E0A8ECB2E44A
:103680008B879C87AD87BE876B857C858D859E8566
:1036900020E030E04AEF54E40E941F02DC01CB013D
:1036A0008F839887A987BA876F81788589859A855E
:1036B00020E030E040E85FE30E94790388232CF4A7
:1036C00081E090E09E838D833FC06F8178858985FE
:1036D0009A8520E03FEF4FE757E40E941903181640
:1036E0004CF56B857C858D859E8520E030E040E241
:1036F00051E40E941F02DC01CB01BC01CD010E94FC
:103700004900DC01CB019E838D830FC088EC90E0E3
:103710009C838B838B819C810197F1F79C838B83A6
:103720008D819E8101979E838D838D819E810097DF
:1037300069F714C06F81788589859A850E94490050
:10374000DC01CB019E838D838D819E819A83898349
:1037500089819A810197F1F79A8389838FEF0E947B
:103760008F0889AF89AD813029F487E691E00E9406
:10377000E10E07C089AD882321F485E791E00E941E
:10378000E10E81E060E00E94870E80E491E00E94FB
:10379000E10E8FEF8DAF03C00E9467108DAF8DAD2E
:1037A0008F3FD1F38DAD813321F484E20E948F08E5
:1037B0003BCF8DAD823309F037CF84E30E948F0871
:1037C00033CF8DAD8233B1F50E94480C8BAF0E9490
:1037D0007D0E80E060E00E94870E8BAD882329F487
:1037E00084E891E00E94E10E07C08BAD813021F4A6
:1037F00083E991E00E94E10E81E060E00E94870E83
:1038000082EA91E00E94E10E8FEF8DAF03C00E942B
:1038100067108DAF8DAD8F3FD1F38DAD813319F42E
:103820000E940F0C01CF8DAD823309F03FC00E9482
:103830001A0CFACE8DAD8333A9F50E94250C8CAFFE
:103840000E947D0E80E060E00E94870E8CAD882390
:1038500029F484E891E00E94E10E07C08CAD81302C
:1038600021F483E991E00E94E10E81E060E00E9492
:10387000870E82EA91E00E94E10E8FEF8DAF03C0C8
:103880000E9467108DAF8DAD8F3FD1F38DAD813329
:1038900019F40E94F90BC8CE8DAD823339F40E9421
:1038A000040CC2CE8DAD843309F494CCED960FB6E2
:1038B000F894DEBF0FBECDBFCF91DF910895DF93A7
:1038C000CF93CDB7DEB7EB970FB6F894DEBF0FBE40
:1038D000CDBF8FEF8BAF81E061E00E947C0C0E9436
:1038E0007D0E80E060E00E94870E81EB91E00E94F7
:1038F000E10E0E947D0E8CEF90E00E94E10E81E0CF
:1039000060E00E94870E8EEB91E00E94E10E8FEF47
:103910008BAF03C00E9467108BAF8BAD8F3FD1F38D
:103920000E947D0E80E060E00E94870E8BAD8133A7
:1039300009F0A8C081E10E948F0880E090E0A8EC27
:10394000B2E48DAB9EABAFABB8AF6DA97EA98FA92A
:1039500098AD20E030E04AEF54E40E941F02DC0101
:10396000CB0189AB9AABABABBCAB69A97AA98BA9EC
:103970009CA920E030E040E85FE30E9479038823BF
:103980002CF481E090E098AB8FA73FC069A97AA999
:103990008BA99CA920E03FEF4FE757E40E94190351
:1039A00018164CF56DA97EA98FA998AD20E030E0DE
:1039B00040E251E40E941F02DC01CB01BC01CD01B9
:1039C0000E944900DC01CB0198AB8FA70FC088ECA7
:1039D00090E09EA78DA78DA59EA50197F1F79EA7C4
:1039E0008DA78FA598A9019798AB8FA78FA598A9A8
:1039F000009769F714C069A97AA98BA99CA90E94AC
:103A00004900DC01CB0198AB8FA78FA598A99CA793
:103A10008BA78BA59CA50197F1F79CA78BA78FEF90
:103A20000E948F088AAF8AAD813029F48CEC91E036
:103A30000E94E10E07C08AAD882321F48AED91E04F
:103A40000E94E10E81E060E00E94870E80E491E038
:103A50000E94E10E8FEF8BAF03C00E9467108BAF07
:103A60008BAD8F3FD1F38BAD813321F481E20E9486
:103A70008F083FCF8BAD823309F03BCF81E30E94AB
:103A80008F0837CF8BAD823309F0A8C082E10E9446
:103A90008F0880E090E0A8ECB2E48FA398A7A9A7D4
:103AA000BAA76FA178A589A59AA520E030E04AEFD2
:103AB00054E40E941F02DC01CB018BA39CA3ADA3A5
:103AC000BEA36BA17CA18DA19EA120E030E040E8C7
:103AD0005FE30E94790388232CF481E090E09AA3AD
:103AE00089A33FC06BA17CA18DA19EA120E03FEFE7
:103AF0004FE757E40E94190318164CF56FA178A5FB
:103B000089A59AA520E030E040E251E40E941F021E
:103B1000DC01CB01BC01CD010E944900DC01CB01DD
:103B20009AA389A30FC088EC90E098A38F8F8F8D04
:103B300098A10197F1F798A38F8F89A19AA1019776
:103B40009AA389A389A19AA1009769F714C06BA1D0
:103B50007CA18DA19EA10E944900DC01CB019AA30A
:103B600089A389A19AA19E8F8D8F8D8D9E8D01979E
:103B7000F1F79E8F8D8F8FEF0E948F088AAF8AADED
:103B8000813029F48CEC91E00E94E10E07C08AADEF
:103B9000882321F48AED91E00E94E10E81E060E04B
:103BA0000E94870E80E491E00E94E10E8FEF8BAFC0
:103BB00003C00E9467108BAF8BAD8F3FD1F38BADED
:103BC000813321F482E20E948F0893CE8BAD823341
:103BD00009F08FCE82E30E948F088BCE8BAD8333AA
:103BE00009F0A8C083E10E948F0880E090E0A8EC73
:103BF000B2E4898F9A8FAB8FBC8F698D7A8D8B8D54
:103C00009C8D20E030E04AEF54E40E941F02DC016A
:103C1000CB018D8B9E8BAF8BB88F6D897E898F8901
:103C2000988D20E030E040E85FE30E94790388232C
:103C30002CF481E090E09C8B8B8B3FC06D897E895A
:103C40008F89988D20E03FEF4FE757E40E941903DA
:103C500018164CF5698D7A8D8B8D9C8D20E030E0A7
:103C600040E251E40E941F02DC01CB01BC01CD0106
:103C70000E944900DC01CB019C8B8B8B0FC088EC30
:103C800090E09A8B898B89899A890197F1F79A8BB1
:103C9000898B8B899C8901979C8B8B8B8B899C89C9
:103CA000009769F714C06D897E898F89988D0E946D
:103CB0004900DC01CB019C8B8B8B8B899C89988B79
:103CC0008F878F8598890197F1F7988B8F878FEF72
:103CD0000E948F088AAF8AAD813029F48CEC91E084
:103CE0000E94E10E07C08AAD882321F48AED91E09D
:103CF0000E94E10E81E060E00E94870E80E491E086
:103D00000E94E10E8FEF8BAF03C00E9467108BAF54
:103D10008BAD8F3FD1F38BAD813321F483E20E94D1
:103D20008F08E7CD8BAD823309F0E3CD83E30E94AA
:103D30008F08DFCD8BAD843309F0A8C084E10E94E9
:103D40008F0880E090E0A8ECB2E48B879C87AD8779
:103D5000BE876B857C858D859E8520E030E04AEFAF
:103D600054E40E941F02DC01CB018F839887A9874E
:103D7000BA876F81788589859A8520E030E040E8B0
:103D80005FE30E94790388232CF481E090E09E8316
:103D90008D833FC06F81788589859A8520E03FEFCC
:103DA0004FE757E40E94190318164CF56B857C8584
:103DB0008D859E8520E030E040E251E40E941F02A4
:103DC000DC01CB01BC01CD010E944900DC01CB012B
:103DD0009E838D830FC088EC90E09C838B838B81C6
:103DE0009C810197F1F79C838B838D819E81019744
:103DF0009E838D838D819E81009769F714C06F81AA
:103E0000788589859A850E944900DC01CB019E83D3
:103E10008D838D819E819A83898389819A8101977F
:103E2000F1F79A8389838FEF0E948F0889AF89AD5C
:103E3000813029F487E691E00E94E10E07C089AD48
:103E4000882321F485E791E00E94E10E81E060E0A3
:103E50000E94870E80E491E00E94E10E8FEF8BAF0D
:103E600003C00E9467108BAF8BAD8F3FD1F38BAD3A
:103E7000813321F484E20E948F083BCD8BAD8233E5
:103E800009F037CD84E30E948F0833CDEB960FB64F
:103E9000F894DEBF0FBECDBFCF91DF9108952F9272
:103EA0003F924F925F926F927F928F929F92AF92CA
:103EB000BF92CF92DF92EF92FF920F931F93CF9317
:103EC000DF93CDB7DEB7CA1BDB0B0FB6F894DEBFAE
:103ED0000FBECDBF09942A88398848885F846E84D4
:103EE0007D848C849B84AA84B984C884DF80EE801E
:103EF000FD800C811B81AA81B981CE0FD11D0FB627
:103F0000F894DEBF0FBECDBFED010895AEE0B0E086
:103F1000ECE8FFE10C945D1F0D891E8986E08C831F
:103F20001A8309838FEF9FE79E838D839E01275E0F
:103F30003F4FCE0101966F89788DA9010E94AA1F7B
:103F40002F813885020F131FF80110822E96E4E0AE
:103F50000C94791FABE0B0E0E0EBFFE10C944F1F55
:103F60003C012B015A01FC0117821682838181FDDD
:103F700003C06FEF7FEFC6C19AE0892E1E0108943F
:103F8000211C311CF3012381F20123FD859123FFC4
:103F900081912F01882309F4B2C1853239F423FDC0
:103FA000859123FF81912F01853229F490E0B3019F
:103FB0000E949D21E7CF982FFF24EE249924FFE152
:103FC000FF15D0F09B3269F09C3228F4903259F002
:103FD000933291F40EC09D3249F0903369F441E080
:103FE00024C052E0F52A84E0F82A28C098E0F92A93
:103FF00025C0E0E1FE2A22C0F7FC29C0892F8053AA
:104000008A3070F4F6FE05C0989C902C1124980E0E
:1040100015C0E89CE02C1124E80EF0E2FF2A0EC047
:104020009E3229F4F6FC6BC140E4F42A07C09C36AA
:1040300019F450E8F52A02C0983649F4F20123FD3C
:10404000959123FF91912F01992309F0B8CF892FE2
:104050008554833018F08052833038F444E050E0C7
:10406000A40EB51E5FE359830FC0933631F093372A
:1040700079F0933509F056C020C0F501808189831D
:1040800042E050E0A40EB51E610101E010E012C054
:10409000F501C080D180F6FC03C06FEF7FEF02C056
:1040A000692D70E042E050E0A40EB51EC6010E94EA
:1040B00092218C015FE7F52214C0F501C080D18008
:1040C000F6FC03C06FEF7FEF02C0692D70E042E0A5
:1040D00050E0A40EB51EC6010E9487218C0150E855
:1040E000F52AF3FE07C01AC080E290E0B3010E94F7
:1040F0009D21EA948E2D90E008171907A8F30EC0B1
:10410000F601F7FC8591F7FE81916F0190E0B30114
:104110000E949D21E110EA94015010400115110503
:1041200079F7EAC0943611F0993669F5F7FE08C0C0
:10413000F501208131814281538184E090E00AC001
:10414000F501808191819C01442737FD4095542FD2
:1041500082E090E0A80EB91E9FE6F92257FF09C041
:1041600050954095309521953F4F4F4F5F4FE0E878
:10417000FE2ACA01B901A1012AE030E00E94C9214A
:10418000D82ED21840C0953729F41F2D1F7E2AE063
:1041900030E01DC01F2D197F9F3661F0903720F44D
:1041A000983509F0ACC00FC0903739F0983709F056
:1041B000A6C004C028E030E00AC0106114FD1460FD
:1041C00020E130E004C014FD166020E132E017FF6A
:1041D00008C0F501608171818281938144E050E0E3
:1041E00008C0F50180819181BC0180E090E042E04F
:1041F00050E0A40EB51EA1010E94C921D82ED218EC
:104200008FE7F82EF122F6FE0BC05EEFF522D914EF
:1042100038F4F4FE07C0F2FC05C08FEEF82202C0AD
:104220001D2D01C0192DF4FE0DC0FE01ED0DF11D77
:104230008081803319F499EEF92208C01F5FF2FEE5
:1042400005C003C08F2D867809F01F5F0F2DF3FC8A
:1042500014C0F0FE0FC01E1510F09D2C0BC09D2C3D
:104260009E0C911A1E2D06C080E290E0B3010E94C0
:104270009D211F5F1E15C0F304C01E1510F4E11A26
:1042800001C0EE2404FF0FC080E390E0B3010E9460
:104290009D2102FF1DC001FD03C088E790E00EC014
:1042A00088E590E00BC0802F867891F001FF02C076
:1042B0008BE201C080E2F7FC8DE290E0B3010E9446
:1042C0009D2106C080E390E0B3010E949D219A9455
:1042D000D914C0F3DA94F101ED0DF11D808190E065
:1042E000B3010E949D21DD20A9F706C080E290E085
:1042F000B3010E949D21EA94EE20C1F743CEF30161
:1043000066817781CB012B96E2E10C946B1FFC0157
:104310000590615070400110D8F7809590958E0FF0
:104320009F1F0895FC016150704001900110D8F763
:10433000809590958E0F9F1F08950F931F93CF9395
:10434000DF938C01EB018B8181FF1BC082FF0DC0CD
:104350002E813F818C819D812817390764F4E88183
:10436000F9810193F983E88306C0E885F985802FF8
:104370000995892B31F48E819F8101969F838E83CD
:1043800002C00FEF1FEFC801DF91CF911F910F9176
:104390000895FA01AA27283051F1203181F1E894DB
:1043A0006F936E7F6E5F7F4F8F4F9F4FAF4FB1E028
:1043B0003ED0B4E03CD0670F781F891F9A1FA11D23
:1043C000680F791F8A1F911DA11D6A0F711D811D24
:1043D000911DA11D20D009F468943F912AE0269FE9
:1043E00011243019305D3193DEF6CF010895462F48
:1043F0004770405D4193B3E00FD0C9F7F6CF462F29
:104400004F70405D4A3318F0495D31FD4052419391
:1044100002D0A9F7EACFB4E0A6959795879577954E
:104420006795BA95C9F700976105710508959B01D5
:10443000AC010A2E06945795479537952795BA955E
:10444000C9F7620F731F841F951FA01D0895F8946C
:02445000FFCF9C
:104452002564002D0000257325642E253034640068
:1044620057656C636F6D6520746F20736D61727434
:1044720020686F6D652073797374656D0043686F92
:104482006F7365204D6F64653A2000313A41444DA7
:10449200494E2020323A5553455200456E7465729A
:1044A2002070617373776F72643A20200057726FC5
:1044B2006E672050617373776F726421004E6F20B4
:1044C2007472696573206C65667400426C6F636B0D
:1044D200656420666F72003135207365630057652D
:1044E2006C636F6D652041444D494E00313A526F05
:1044F2006F6D3120323A526F6F6D3200333A526F24
:104502006F6D3320343A6D6F7265004C45442073F1
:1045120074617475653A204F4E004C4544207374A3
:10452200617475653A204F4646004572726F72009B
:10453200313A4F4E20323A4F464600313A412E43ED
:1045420020323A47617261676500333A446F6F7295
:1045520020343A52657400412E432073746174759D
:10456200653A4F4E00412E43207374617475653A6B
:104572004F4646005374617475653A20636C6F73DD
:104582006564005374617475653A206F70656E6579
:104592006400313A4F70656E20323A436C6F736536
:1045A2000057656C636F6D65207573657200333AF1
:1045B200526F6F6D3320343A412E43004C454420F4
:1045C2007374617475653A4F4E004C4544207374A0
:1045D200617475653A4F4646000000000000000015
:1045E200000001020203030303040404040404049C
:1045F200040505050505050505050505050505056A
:104602000506060606060606060606060606060649
:104612000606060606060606060606060606060638
:104622000607070707070707070707070707070719
:104632000707070707070707070707070707070708
:1046420007070707070707070707070707070707F8
:1046520007070707070707070707070707070707E8
:1046620007080808080808080808080808080808C9
:1046720008080808080808080808080808080808B8
:1046820008080808080808080808080808080808A8
:104692000808080808080808080808080808080898
:1046A2000808080808080808080808080808080888
:1046B2000808080808080808080808080808080878
:1046C2000808080808080808080808080808080868
:1046D2000808080808080808080808080808080858
:1046E2000831323334313131313738392F343536BC
:0A46F2002A3132332D43303D2B00F6
:00000001FF
